{
  "_format": "hh-sol-artifact-1",
  "contractName": "Dex",
  "sourceName": "contracts/swap.sol",
  "abi": [
    {
      "inputs": [
        {
          "internalType": "address",
          "name": "_uniswapRouter",
          "type": "address"
        }
      ],
      "stateMutability": "nonpayable",
      "type": "constructor"
    },
    {
      "inputs": [],
      "name": "AllowanceNotEnough",
      "type": "error"
    },
    {
      "inputs": [],
      "name": "ErrorInApproving",
      "type": "error"
    },
    {
      "inputs": [],
      "name": "ErrorInTransaction",
      "type": "error"
    },
    {
      "inputs": [],
      "name": "ReentrancyGuardReentrantCall",
      "type": "error"
    },
    {
      "inputs": [
        {
          "internalType": "address",
          "name": "_tokenFrom",
          "type": "address"
        },
        {
          "internalType": "address",
          "name": "_tokenTo",
          "type": "address"
        },
        {
          "internalType": "uint256",
          "name": "tokenFromAmount",
          "type": "uint256"
        },
        {
          "internalType": "uint256",
          "name": "minTokenToAmount",
          "type": "uint256"
        }
      ],
      "name": "swap",
      "outputs": [
        {
          "internalType": "bool",
          "name": "",
          "type": "bool"
        }
      ],
      "stateMutability": "nonpayable",
      "type": "function"
    },
    {
      "inputs": [],
      "name": "uniswapRouter",
      "outputs": [
        {
          "internalType": "contract IUniswapV2Router02",
          "name": "",
          "type": "address"
        }
      ],
      "stateMutability": "view",
      "type": "function"
    }
  ],
  "bytecode": "0x608060405234801561001057600080fd5b50604051610c6a380380610c6a833981810160405281019061003291906100e4565b600160008190555080600160006101000a81548173ffffffffffffffffffffffffffffffffffffffff021916908373ffffffffffffffffffffffffffffffffffffffff16021790555050610111565b600080fd5b600073ffffffffffffffffffffffffffffffffffffffff82169050919050565b60006100b182610086565b9050919050565b6100c1816100a6565b81146100cc57600080fd5b50565b6000815190506100de816100b8565b92915050565b6000602082840312156100fa576100f9610081565b5b6000610108848285016100cf565b91505092915050565b610b4a806101206000396000f3fe608060405234801561001057600080fd5b50600436106100365760003560e01c8063735de9f71461003b578063fe02915614610059575b600080fd5b610043610089565b6040516100509190610546565b60405180910390f35b610073600480360381019061006e91906105e9565b6100af565b604051610080919061066b565b60405180910390f35b600160009054906101000a900473ffffffffffffffffffffffffffffffffffffffff1681565b60006100b9610477565b6000859050838173ffffffffffffffffffffffffffffffffffffffff1663dd62ed3e33306040518363ffffffff1660e01b81526004016100fa929190610695565b602060405180830381865afa158015610117573d6000803e3d6000fd5b505050506040513d601f19601f8201168201806040525081019061013b91906106d3565b1015610173576040517f902b38ea00000000000000000000000000000000000000000000000000000000815260040160405180910390fd5b60008173ffffffffffffffffffffffffffffffffffffffff166323b872dd3330886040518463ffffffff1660e01b81526004016101b29392919061070f565b6020604051808303816000875af11580156101d1573d6000803e3d6000fd5b505050506040513d601f19601f820116820180604052508101906101f59190610772565b90508061022e576040517f9e63979100000000000000000000000000000000000000000000000000000000815260040160405180910390fd5b8173ffffffffffffffffffffffffffffffffffffffff1663095ea7b3600160009054906101000a900473ffffffffffffffffffffffffffffffffffffffff16876040518363ffffffff1660e01b815260040161028b92919061079f565b6020604051808303816000875af11580156102aa573d6000803e3d6000fd5b505050506040513d601f19601f820116820180604052508101906102ce9190610772565b905080610307576040517ff6bdc9ae00000000000000000000000000000000000000000000000000000000815260040160405180910390fd5b6060878160008151811061031e5761031d6107c8565b5b602002602001019073ffffffffffffffffffffffffffffffffffffffff16908173ffffffffffffffffffffffffffffffffffffffff1681525050868160018151811061036d5761036c6107c8565b5b602002602001019073ffffffffffffffffffffffffffffffffffffffff16908173ffffffffffffffffffffffffffffffffffffffff1681525050600160009054906101000a900473ffffffffffffffffffffffffffffffffffffffff1673ffffffffffffffffffffffffffffffffffffffff166338ed173987878433610258426103f79190610826565b6040518663ffffffff1660e01b8152600401610417959493929190610918565b6000604051808303816000875af1158015610436573d6000803e3d6000fd5b505050506040513d6000823e3d601f19601f8201168201806040525081019061045f9190610acb565b506001935050505061046f6104bd565b949350505050565b6002600054036104b3576040517f3ee5aeb500000000000000000000000000000000000000000000000000000000815260040160405180910390fd5b6002600081905550565b6001600081905550565b600073ffffffffffffffffffffffffffffffffffffffff82169050919050565b6000819050919050565b600061050c610507610502846104c7565b6104e7565b6104c7565b9050919050565b600061051e826104f1565b9050919050565b600061053082610513565b9050919050565b61054081610525565b82525050565b600060208201905061055b6000830184610537565b92915050565b6000604051905090565b600080fd5b600080fd5b6000610580826104c7565b9050919050565b61059081610575565b811461059b57600080fd5b50565b6000813590506105ad81610587565b92915050565b6000819050919050565b6105c6816105b3565b81146105d157600080fd5b50565b6000813590506105e3816105bd565b92915050565b600080600080608085870312156106035761060261056b565b5b60006106118782880161059e565b94505060206106228782880161059e565b9350506040610633878288016105d4565b9250506060610644878288016105d4565b91505092959194509250565b60008115159050919050565b61066581610650565b82525050565b6000602082019050610680600083018461065c565b92915050565b61068f81610575565b82525050565b60006040820190506106aa6000830185610686565b6106b76020830184610686565b9392505050565b6000815190506106cd816105bd565b92915050565b6000602082840312156106e9576106e861056b565b5b60006106f7848285016106be565b91505092915050565b610709816105b3565b82525050565b60006060820190506107246000830186610686565b6107316020830185610686565b61073e6040830184610700565b949350505050565b61074f81610650565b811461075a57600080fd5b50565b60008151905061076c81610746565b92915050565b6000602082840312156107885761078761056b565b5b60006107968482850161075d565b91505092915050565b60006040820190506107b46000830185610686565b6107c16020830184610700565b9392505050565b7f4e487b7100000000000000000000000000000000000000000000000000000000600052603260045260246000fd5b7f4e487b7100000000000000000000000000000000000000000000000000000000600052601160045260246000fd5b6000610831826105b3565b915061083c836105b3565b9250828201905080821115610854576108536107f7565b5b92915050565b600081519050919050565b600082825260208201905092915050565b6000819050602082019050919050565b61088f81610575565b82525050565b60006108a18383610886565b60208301905092915050565b6000602082019050919050565b60006108c58261085a565b6108cf8185610865565b93506108da83610876565b8060005b8381101561090b5781516108f28882610895565b97506108fd836108ad565b9250506001810190506108de565b5085935050505092915050565b600060a08201905061092d6000830188610700565b61093a6020830187610700565b818103604083015261094c81866108ba565b905061095b6060830185610686565b6109686080830184610700565b9695505050505050565b600080fd5b6000601f19601f8301169050919050565b7f4e487b7100000000000000000000000000000000000000000000000000000000600052604160045260246000fd5b6109c082610977565b810181811067ffffffffffffffff821117156109df576109de610988565b5b80604052505050565b60006109f2610561565b90506109fe82826109b7565b919050565b600067ffffffffffffffff821115610a1e57610a1d610988565b5b602082029050602081019050919050565b600080fd5b6000610a47610a4284610a03565b6109e8565b90508083825260208201905060208402830185811115610a6a57610a69610a2f565b5b835b81811015610a935780610a7f88826106be565b845260208401935050602081019050610a6c565b5050509392505050565b600082601f830112610ab257610ab1610972565b5b8151610ac2848260208601610a34565b91505092915050565b600060208284031215610ae157610ae061056b565b5b600082015167ffffffffffffffff811115610aff57610afe610570565b5b610b0b84828501610a9d565b9150509291505056fea2646970667358221220f5548b4efd3d8efe038c005610d4d043f42eb5566062f3623cf2d7602fba4d7464736f6c63430008180033",
  "linkReferences": {},
  "deployedLinkReferences": {}
}